{
  "_format": "hh-sol-artifact-1",
  "contractName": "TokenFactory",
  "sourceName": "contracts/Tokenizer.sol",
  "abi": [
    {
      "inputs": [
        {
          "internalType": "string",
          "name": "name",
          "type": "string"
        },
        {
          "internalType": "string",
          "name": "symbol",
          "type": "string"
        },
        {
          "internalType": "uint256",
          "name": "maxSupply",
          "type": "uint256"
        }
      ],
      "name": "newToken",
      "outputs": [],
      "stateMutability": "nonpayable",
      "type": "function"
    },
    {
      "inputs": [
        {
          "internalType": "address",
          "name": "",
          "type": "address"
        },
        {
          "internalType": "uint256",
          "name": "",
          "type": "uint256"
        }
      ],
      "name": "tokens",
      "outputs": [
        {
          "internalType": "address",
          "name": "",
          "type": "address"
        }
      ],
      "stateMutability": "view",
      "type": "function"
    }
  ],
  "bytecode": "0x608060405234801561001057600080fd5b506124a7806100206000396000f3fe60806040523480156200001157600080fd5b50600436106200003a5760003560e01c80634abf825d146200003f578063acbc272b1462000075575b600080fd5b6200005d60048036038101906200005791906200028c565b62000095565b6040516200006c9190620002e4565b60405180910390f35b6200009360048036038101906200008d919062000463565b620000e4565b005b60006020528160005260406000208181548110620000b257600080fd5b906000526020600020016000915091509054906101000a900473ffffffffffffffffffffffffffffffffffffffff1681565b6000838383604051620000f790620001ca565b620001059392919062000597565b604051809103906000f08015801562000122573d6000803e3d6000fd5b5090506000803373ffffffffffffffffffffffffffffffffffffffff1673ffffffffffffffffffffffffffffffffffffffff168152602001908152602001600020819080600181540180825580915050600190039060005260206000200160009091909190916101000a81548173ffffffffffffffffffffffffffffffffffffffff021916908373ffffffffffffffffffffffffffffffffffffffff16021790555050505050565b611e8f80620005e383390190565b6000604051905090565b600080fd5b600080fd5b600073ffffffffffffffffffffffffffffffffffffffff82169050919050565b60006200021982620001ec565b9050919050565b6200022b816200020c565b81146200023757600080fd5b50565b6000813590506200024b8162000220565b92915050565b6000819050919050565b620002668162000251565b81146200027257600080fd5b50565b60008135905062000286816200025b565b92915050565b60008060408385031215620002a657620002a5620001e2565b5b6000620002b6858286016200023a565b9250506020620002c98582860162000275565b9150509250929050565b620002de816200020c565b82525050565b6000602082019050620002fb6000830184620002d3565b92915050565b600080fd5b600080fd5b6000601f19601f8301169050919050565b7f4e487b7100000000000000000000000000000000000000000000000000000000600052604160045260246000fd5b62000356826200030b565b810181811067ffffffffffffffff821117156200037857620003776200031c565b5b80604052505050565b60006200038d620001d8565b90506200039b82826200034b565b919050565b600067ffffffffffffffff821115620003be57620003bd6200031c565b5b620003c9826200030b565b9050602081019050919050565b82818337600083830152505050565b6000620003fc620003f684620003a0565b62000381565b9050828152602081018484840111156200041b576200041a62000306565b5b62000428848285620003d6565b509392505050565b600082601f83011262000448576200044762000301565b5b81356200045a848260208601620003e5565b91505092915050565b6000806000606084860312156200047f576200047e620001e2565b5b600084013567ffffffffffffffff811115620004a0576200049f620001e7565b5b620004ae8682870162000430565b935050602084013567ffffffffffffffff811115620004d257620004d1620001e7565b5b620004e08682870162000430565b9250506040620004f38682870162000275565b9150509250925092565b600081519050919050565b600082825260208201905092915050565b60005b83811015620005395780820151818401526020810190506200051c565b60008484015250505050565b60006200055282620004fd565b6200055e818562000508565b93506200057081856020860162000519565b6200057b816200030b565b840191505092915050565b620005918162000251565b82525050565b60006060820190508181036000830152620005b3818662000545565b90508181036020830152620005c9818562000545565b9050620005da604083018462000586565b94935050505056fe60806040523480156200001157600080fd5b5060405162001e8f38038062001e8f83398181016040528101906200003791906200042b565b828281600390816200004a919062000706565b5080600490816200005c919062000706565b50505032600560006101000a81548173ffffffffffffffffffffffffffffffffffffffff021916908373ffffffffffffffffffffffffffffffffffffffff16021790555080600681905550620000dd600560009054906101000a900473ffffffffffffffffffffffffffffffffffffffff16600654620000e660201b60201c565b50505062000908565b600073ffffffffffffffffffffffffffffffffffffffff168273ffffffffffffffffffffffffffffffffffffffff160362000158576040517f08c379a00000000000000000000000000000000000000000000000000000000081526004016200014f906200084e565b60405180910390fd5b6200016c600083836200025360201b60201c565b80600260008282546200018091906200089f565b92505081905550806000808473ffffffffffffffffffffffffffffffffffffffff1673ffffffffffffffffffffffffffffffffffffffff168152602001908152602001600020600082825401925050819055508173ffffffffffffffffffffffffffffffffffffffff16600073ffffffffffffffffffffffffffffffffffffffff167fddf252ad1be2c89b69c2b068fc378daa952ba7f163c4a11628f55a4df523b3ef83604051620002339190620008eb565b60405180910390a36200024f600083836200025860201b60201c565b5050565b505050565b505050565b6000604051905090565b600080fd5b600080fd5b600080fd5b600080fd5b6000601f19601f8301169050919050565b7f4e487b7100000000000000000000000000000000000000000000000000000000600052604160045260246000fd5b620002c6826200027b565b810181811067ffffffffffffffff82111715620002e857620002e76200028c565b5b80604052505050565b6000620002fd6200025d565b90506200030b8282620002bb565b919050565b600067ffffffffffffffff8211156200032e576200032d6200028c565b5b62000339826200027b565b9050602081019050919050565b60005b838110156200036657808201518184015260208101905062000349565b60008484015250505050565b600062000389620003838462000310565b620002f1565b905082815260208101848484011115620003a857620003a762000276565b5b620003b584828562000346565b509392505050565b600082601f830112620003d557620003d462000271565b5b8151620003e784826020860162000372565b91505092915050565b6000819050919050565b6200040581620003f0565b81146200041157600080fd5b50565b6000815190506200042581620003fa565b92915050565b60008060006060848603121562000447576200044662000267565b5b600084015167ffffffffffffffff8111156200046857620004676200026c565b5b6200047686828701620003bd565b935050602084015167ffffffffffffffff8111156200049a57620004996200026c565b5b620004a886828701620003bd565b9250506040620004bb8682870162000414565b9150509250925092565b600081519050919050565b7f4e487b7100000000000000000000000000000000000000000000000000000000600052602260045260246000fd5b600060028204905060018216806200051857607f821691505b6020821081036200052e576200052d620004d0565b5b50919050565b60008190508160005260206000209050919050565b60006020601f8301049050919050565b600082821b905092915050565b600060088302620005987fffffffffffffffffffffffffffffffffffffffffffffffffffffffffffffffff8262000559565b620005a4868362000559565b95508019841693508086168417925050509392505050565b6000819050919050565b6000620005e7620005e1620005db84620003f0565b620005bc565b620003f0565b9050919050565b6000819050919050565b6200060383620005c6565b6200061b6200061282620005ee565b84845462000566565b825550505050565b600090565b6200063262000623565b6200063f818484620005f8565b505050565b5b8181101562000667576200065b60008262000628565b60018101905062000645565b5050565b601f821115620006b657620006808162000534565b6200068b8462000549565b810160208510156200069b578190505b620006b3620006aa8562000549565b83018262000644565b50505b505050565b600082821c905092915050565b6000620006db60001984600802620006bb565b1980831691505092915050565b6000620006f68383620006c8565b9150826002028217905092915050565b6200071182620004c5565b67ffffffffffffffff8111156200072d576200072c6200028c565b5b620007398254620004ff565b620007468282856200066b565b600060209050601f8311600181146200077e576000841562000769578287015190505b620007758582620006e8565b865550620007e5565b601f1984166200078e8662000534565b60005b82811015620007b85784890151825560018201915060208501945060208101905062000791565b86831015620007d85784890151620007d4601f891682620006c8565b8355505b6001600288020188555050505b505050505050565b600082825260208201905092915050565b7f45524332303a206d696e7420746f20746865207a65726f206164647265737300600082015250565b600062000836601f83620007ed565b91506200084382620007fe565b602082019050919050565b60006020820190508181036000830152620008698162000827565b9050919050565b7f4e487b7100000000000000000000000000000000000000000000000000000000600052601160045260246000fd5b6000620008ac82620003f0565b9150620008b983620003f0565b9250828201905080821115620008d457620008d362000870565b5b92915050565b620008e581620003f0565b82525050565b6000602082019050620009026000830184620008da565b92915050565b61157780620009186000396000f3fe608060405234801561001057600080fd5b50600436106100f55760003560e01c806370a0823111610097578063a9059cbb11610066578063a9059cbb1461029c578063bb102aea146102cc578063dd62ed3e146102ea578063efca2eed1461031a576100f5565b806370a08231146102005780638da5cb5b1461023057806395d89b411461024e578063a457c2d71461026c576100f5565b806318160ddd116100d357806318160ddd1461016457806323b872dd14610182578063313ce567146101b257806339509351146101d0576100f5565b806305ab421d146100fa57806306fdde0314610116578063095ea7b314610134575b600080fd5b610114600480360381019061010f9190610d35565b610338565b005b61011e610464565b60405161012b9190610e05565b60405180910390f35b61014e60048036038101906101499190610d35565b6104f6565b60405161015b9190610e42565b60405180910390f35b61016c610519565b6040516101799190610e6c565b60405180910390f35b61019c60048036038101906101979190610e87565b610523565b6040516101a99190610e42565b60405180910390f35b6101ba610552565b6040516101c79190610ef6565b60405180910390f35b6101ea60048036038101906101e59190610d35565b61055b565b6040516101f79190610e42565b60405180910390f35b61021a60048036038101906102159190610f11565b610592565b6040516102279190610e6c565b60405180910390f35b6102386105da565b6040516102459190610f4d565b60405180910390f35b610256610600565b6040516102639190610e05565b60405180910390f35b61028660048036038101906102819190610d35565b610692565b6040516102939190610e42565b60405180910390f35b6102b660048036038101906102b19190610d35565b610709565b6040516102c39190610e42565b60405180910390f35b6102d461072c565b6040516102e19190610e6c565b60405180910390f35b61030460048036038101906102ff9190610f68565b610732565b6040516103119190610e6c565b60405180910390f35b6103226107b9565b60405161032f9190610e6c565b60405180910390f35b600560009054906101000a900473ffffffffffffffffffffffffffffffffffffffff1673ffffffffffffffffffffffffffffffffffffffff163273ffffffffffffffffffffffffffffffffffffffff16146103c8576040517f08c379a00000000000000000000000000000000000000000000000000000000081526004016103bf9061101a565b60405180910390fd5b600654816007546103d99190611069565b111561041a576040517f08c379a0000000000000000000000000000000000000000000000000000000008152600401610411906110e9565b60405180910390fd5b806007600082825461042c9190611069565b92505081905550610460600560009054906101000a900473ffffffffffffffffffffffffffffffffffffffff1683836107bf565b5050565b60606003805461047390611138565b80601f016020809104026020016040519081016040528092919081815260200182805461049f90611138565b80156104ec5780601f106104c1576101008083540402835291602001916104ec565b820191906000526020600020905b8154815290600101906020018083116104cf57829003601f168201915b5050505050905090565b600080610501610a35565b905061050e818585610a3d565b600191505092915050565b6000600254905090565b60008061052e610a35565b905061053b858285610c06565b6105468585856107bf565b60019150509392505050565b60006012905090565b600080610566610a35565b90506105878185856105788589610732565b6105829190611069565b610a3d565b600191505092915050565b60008060008373ffffffffffffffffffffffffffffffffffffffff1673ffffffffffffffffffffffffffffffffffffffff168152602001908152602001600020549050919050565b600560009054906101000a900473ffffffffffffffffffffffffffffffffffffffff1681565b60606004805461060f90611138565b80601f016020809104026020016040519081016040528092919081815260200182805461063b90611138565b80156106885780601f1061065d57610100808354040283529160200191610688565b820191906000526020600020905b81548152906001019060200180831161066b57829003601f168201915b5050505050905090565b60008061069d610a35565b905060006106ab8286610732565b9050838110156106f0576040517f08c379a00000000000000000000000000000000000000000000000000000000081526004016106e7906111db565b60405180910390fd5b6106fd8286868403610a3d565b60019250505092915050565b600080610714610a35565b90506107218185856107bf565b600191505092915050565b60065481565b6000600160008473ffffffffffffffffffffffffffffffffffffffff1673ffffffffffffffffffffffffffffffffffffffff16815260200190815260200160002060008373ffffffffffffffffffffffffffffffffffffffff1673ffffffffffffffffffffffffffffffffffffffff16815260200190815260200160002054905092915050565b60075481565b600073ffffffffffffffffffffffffffffffffffffffff168373ffffffffffffffffffffffffffffffffffffffff160361082e576040517f08c379a00000000000000000000000000000000000000000000000000000000081526004016108259061126d565b60405180910390fd5b600073ffffffffffffffffffffffffffffffffffffffff168273ffffffffffffffffffffffffffffffffffffffff160361089d576040517f08c379a0000000000000000000000000000000000000000000000000000000008152600401610894906112ff565b60405180910390fd5b6108a8838383610c92565b60008060008573ffffffffffffffffffffffffffffffffffffffff1673ffffffffffffffffffffffffffffffffffffffff1681526020019081526020016000205490508181101561092e576040517f08c379a000000000000000000000000000000000000000000000000000000000815260040161092590611391565b60405180910390fd5b8181036000808673ffffffffffffffffffffffffffffffffffffffff1673ffffffffffffffffffffffffffffffffffffffff16815260200190815260200160002081905550816000808573ffffffffffffffffffffffffffffffffffffffff1673ffffffffffffffffffffffffffffffffffffffff168152602001908152602001600020600082825401925050819055508273ffffffffffffffffffffffffffffffffffffffff168473ffffffffffffffffffffffffffffffffffffffff167fddf252ad1be2c89b69c2b068fc378daa952ba7f163c4a11628f55a4df523b3ef84604051610a1c9190610e6c565b60405180910390a3610a2f848484610c97565b50505050565b600033905090565b600073ffffffffffffffffffffffffffffffffffffffff168373ffffffffffffffffffffffffffffffffffffffff1603610aac576040517f08c379a0000000000000000000000000000000000000000000000000000000008152600401610aa390611423565b60405180910390fd5b600073ffffffffffffffffffffffffffffffffffffffff168273ffffffffffffffffffffffffffffffffffffffff1603610b1b576040517f08c379a0000000000000000000000000000000000000000000000000000000008152600401610b12906114b5565b60405180910390fd5b80600160008573ffffffffffffffffffffffffffffffffffffffff1673ffffffffffffffffffffffffffffffffffffffff16815260200190815260200160002060008473ffffffffffffffffffffffffffffffffffffffff1673ffffffffffffffffffffffffffffffffffffffff168152602001908152602001600020819055508173ffffffffffffffffffffffffffffffffffffffff168373ffffffffffffffffffffffffffffffffffffffff167f8c5be1e5ebec7d5bd14f71427d1e84f3dd0314c0f7b2291e5b200ac8c7c3b92583604051610bf99190610e6c565b60405180910390a3505050565b6000610c128484610732565b90507fffffffffffffffffffffffffffffffffffffffffffffffffffffffffffffffff8114610c8c5781811015610c7e576040517f08c379a0000000000000000000000000000000000000000000000000000000008152600401610c7590611521565b60405180910390fd5b610c8b8484848403610a3d565b5b50505050565b505050565b505050565b600080fd5b600073ffffffffffffffffffffffffffffffffffffffff82169050919050565b6000610ccc82610ca1565b9050919050565b610cdc81610cc1565b8114610ce757600080fd5b50565b600081359050610cf981610cd3565b92915050565b6000819050919050565b610d1281610cff565b8114610d1d57600080fd5b50565b600081359050610d2f81610d09565b92915050565b60008060408385031215610d4c57610d4b610c9c565b5b6000610d5a85828601610cea565b9250506020610d6b85828601610d20565b9150509250929050565b600081519050919050565b600082825260208201905092915050565b60005b83811015610daf578082015181840152602081019050610d94565b60008484015250505050565b6000601f19601f8301169050919050565b6000610dd782610d75565b610de18185610d80565b9350610df1818560208601610d91565b610dfa81610dbb565b840191505092915050565b60006020820190508181036000830152610e1f8184610dcc565b905092915050565b60008115159050919050565b610e3c81610e27565b82525050565b6000602082019050610e576000830184610e33565b92915050565b610e6681610cff565b82525050565b6000602082019050610e816000830184610e5d565b92915050565b600080600060608486031215610ea057610e9f610c9c565b5b6000610eae86828701610cea565b9350506020610ebf86828701610cea565b9250506040610ed086828701610d20565b9150509250925092565b600060ff82169050919050565b610ef081610eda565b82525050565b6000602082019050610f0b6000830184610ee7565b92915050565b600060208284031215610f2757610f26610c9c565b5b6000610f3584828501610cea565b91505092915050565b610f4781610cc1565b82525050565b6000602082019050610f626000830184610f3e565b92915050565b60008060408385031215610f7f57610f7e610c9c565b5b6000610f8d85828601610cea565b9250506020610f9e85828601610cea565b9150509250929050565b7f4f6e6c7920746865206f776e65722063616e2063616c6c20746869732066756e60008201527f6374696f6e000000000000000000000000000000000000000000000000000000602082015250565b6000611004602583610d80565b915061100f82610fa8565b604082019050919050565b6000602082019050818103600083015261103381610ff7565b9050919050565b7f4e487b7100000000000000000000000000000000000000000000000000000000600052601160045260246000fd5b600061107482610cff565b915061107f83610cff565b92508282019050808211156110975761109661103a565b5b92915050565b7f4578636565647320737570706c79206361700000000000000000000000000000600082015250565b60006110d3601283610d80565b91506110de8261109d565b602082019050919050565b60006020820190508181036000830152611102816110c6565b9050919050565b7f4e487b7100000000000000000000000000000000000000000000000000000000600052602260045260246000fd5b6000600282049050600182168061115057607f821691505b60208210810361116357611162611109565b5b50919050565b7f45524332303a2064656372656173656420616c6c6f77616e63652062656c6f7760008201527f207a65726f000000000000000000000000000000000000000000000000000000602082015250565b60006111c5602583610d80565b91506111d082611169565b604082019050919050565b600060208201905081810360008301526111f4816111b8565b9050919050565b7f45524332303a207472616e736665722066726f6d20746865207a65726f20616460008201527f6472657373000000000000000000000000000000000000000000000000000000602082015250565b6000611257602583610d80565b9150611262826111fb565b604082019050919050565b600060208201905081810360008301526112868161124a565b9050919050565b7f45524332303a207472616e7366657220746f20746865207a65726f206164647260008201527f6573730000000000000000000000000000000000000000000000000000000000602082015250565b60006112e9602383610d80565b91506112f48261128d565b604082019050919050565b60006020820190508181036000830152611318816112dc565b9050919050565b7f45524332303a207472616e7366657220616d6f756e742065786365656473206260008201527f616c616e63650000000000000000000000000000000000000000000000000000602082015250565b600061137b602683610d80565b91506113868261131f565b604082019050919050565b600060208201905081810360008301526113aa8161136e565b9050919050565b7f45524332303a20617070726f76652066726f6d20746865207a65726f2061646460008201527f7265737300000000000000000000000000000000000000000000000000000000602082015250565b600061140d602483610d80565b9150611418826113b1565b604082019050919050565b6000602082019050818103600083015261143c81611400565b9050919050565b7f45524332303a20617070726f766520746f20746865207a65726f20616464726560008201527f7373000000000000000000000000000000000000000000000000000000000000602082015250565b600061149f602283610d80565b91506114aa82611443565b604082019050919050565b600060208201905081810360008301526114ce81611492565b9050919050565b7f45524332303a20696e73756666696369656e7420616c6c6f77616e6365000000600082015250565b600061150b601d83610d80565b9150611516826114d5565b602082019050919050565b6000602082019050818103600083015261153a816114fe565b905091905056fea2646970667358221220d280e953d146a274ce285c86f9ce4cddd3f8f06c077c2a1c57e0d9295592d72d64736f6c63430008120033a2646970667358221220839888e18861d88cc7e5c4b98e37f9acb6a89977c0823be0a7f108b782481d2264736f6c63430008120033",
  "linkReferences": {},
  "deployedLinkReferences": {}
}